{
  "contractName": "Flashloan",
  "abi": [
    {
      "inputs": [
        {
          "internalType": "address",
          "name": "kyberAddress",
          "type": "address"
        },
        {
          "internalType": "address",
          "name": "uniswapAddress",
          "type": "address"
        },
        {
          "internalType": "address",
          "name": "wethAddress",
          "type": "address"
        },
        {
          "internalType": "address",
          "name": "daiAddress",
          "type": "address"
        },
        {
          "internalType": "address",
          "name": "beneficiaryAddress",
          "type": "address"
        }
      ],
      "payable": false,
      "stateMutability": "nonpayable",
      "type": "constructor"
    },
    {
      "anonymous": false,
      "inputs": [
        {
          "components": [
            {
              "internalType": "enum Flashloan.Direction",
              "name": "direction",
              "type": "uint8"
            },
            {
              "internalType": "uint256",
              "name": "repayAmount",
              "type": "uint256"
            }
          ],
          "indexed": false,
          "internalType": "struct Flashloan.ArbInfo",
          "name": "",
          "type": "tuple"
        },
        {
          "indexed": false,
          "internalType": "uint256",
          "name": "profit",
          "type": "uint256"
        },
        {
          "indexed": false,
          "internalType": "uint256",
          "name": "date",
          "type": "uint256"
        }
      ],
      "name": "NewArbitrage",
      "type": "event"
    },
    {
      "payable": true,
      "stateMutability": "payable",
      "type": "fallback"
    },
    {
      "constant": false,
      "inputs": [
        {
          "internalType": "address",
          "name": "sender",
          "type": "address"
        },
        {
          "components": [
            {
              "internalType": "address",
              "name": "owner",
              "type": "address"
            },
            {
              "internalType": "uint256",
              "name": "number",
              "type": "uint256"
            }
          ],
          "internalType": "struct Account.Info",
          "name": "account",
          "type": "tuple"
        },
        {
          "internalType": "bytes",
          "name": "data",
          "type": "bytes"
        }
      ],
      "name": "callFunction",
      "outputs": [],
      "payable": false,
      "stateMutability": "nonpayable",
      "type": "function"
    },
    {
      "constant": false,
      "inputs": [
        {
          "internalType": "address",
          "name": "_solo",
          "type": "address"
        },
        {
          "internalType": "address",
          "name": "_token",
          "type": "address"
        },
        {
          "internalType": "uint256",
          "name": "_amount",
          "type": "uint256"
        },
        {
          "internalType": "enum Flashloan.Direction",
          "name": "_direction",
          "type": "uint8"
        }
      ],
      "name": "initiateFlashloan",
      "outputs": [],
      "payable": false,
      "stateMutability": "nonpayable",
      "type": "function"
    }
  ],
  "bytecode": "0x60806040523480156200001157600080fd5b50604051620028243803806200282483398181016040526200003791908101906200019d565b846000806101000a81548173ffffffffffffffffffffffffffffffffffffffff021916908373ffffffffffffffffffffffffffffffffffffffff16021790555083600160006101000a81548173ffffffffffffffffffffffffffffffffffffffff021916908373ffffffffffffffffffffffffffffffffffffffff16021790555082600260006101000a81548173ffffffffffffffffffffffffffffffffffffffff021916908373ffffffffffffffffffffffffffffffffffffffff16021790555081600360006101000a81548173ffffffffffffffffffffffffffffffffffffffff021916908373ffffffffffffffffffffffffffffffffffffffff16021790555080600460006101000a81548173ffffffffffffffffffffffffffffffffffffffff021916908373ffffffffffffffffffffffffffffffffffffffff16021790555050505050506200026d565b600081519050620001978162000253565b92915050565b600080600080600060a08688031215620001b657600080fd5b6000620001c68882890162000186565b9550506020620001d98882890162000186565b9450506040620001ec8882890162000186565b9350506060620001ff8882890162000186565b9250506080620002128882890162000186565b9150509295509295909350565b60006200022c8262000233565b9050919050565b600073ffffffffffffffffffffffffffffffffffffffff82169050919050565b6200025e816200021f565b81146200026a57600080fd5b50565b6125a7806200027d6000396000f3fe6080604052600436106100295760003560e01c80638b4187131461002b578063c013147614610054575b005b34801561003757600080fd5b50610052600480360361004d9190810190611974565b61007d565b005b34801561006057600080fd5b5061007b60048036036100769190810190611911565b610e67565b005b610085611549565b818060200190516100999190810190611a45565b90506000600360009054906101000a900473ffffffffffffffffffffffffffffffffffffffff1673ffffffffffffffffffffffffffffffffffffffff166370a08231306040518263ffffffff1660e01b81526004016100f89190611fc7565b60206040518083038186803b15801561011057600080fd5b505afa158015610124573d6000803e3d6000fd5b505050506040513d601f19601f820116820180604052506101489190810190611a6e565b90506000600181111561015757fe5b8260000151600181111561016757fe5b141561068e57600360009054906101000a900473ffffffffffffffffffffffffffffffffffffffff1673ffffffffffffffffffffffffffffffffffffffff1663095ea7b36000809054906101000a900473ffffffffffffffffffffffffffffffffffffffff16836040518363ffffffff1660e01b81526004016101eb929190611fe2565b602060405180830381600087803b15801561020557600080fd5b505af1158015610219573d6000803e3d6000fd5b505050506040513d601f19601f8201168201806040525061023d9190810190611a1c565b5060008060009054906101000a900473ffffffffffffffffffffffffffffffffffffffff1673ffffffffffffffffffffffffffffffffffffffff1663809a9e55600360009054906101000a900473ffffffffffffffffffffffffffffffffffffffff1673eeeeeeeeeeeeeeeeeeeeeeeeeeeeeeeeeeeeeeee856040518463ffffffff1660e01b81526004016102d493929190612042565b604080518083038186803b1580156102eb57600080fd5b505afa1580156102ff573d6000803e3d6000fd5b505050506040513d601f19601f820116820180604052506103239190810190611a97565b5090506000809054906101000a900473ffffffffffffffffffffffffffffffffffffffff1673ffffffffffffffffffffffffffffffffffffffff16633bba21dc600360009054906101000a900473ffffffffffffffffffffffffffffffffffffffff1684846040518463ffffffff1660e01b81526004016103a693929190612079565b602060405180830381600087803b1580156103c057600080fd5b505af11580156103d4573d6000803e3d6000fd5b505050506040513d601f19601f820116820180604052506103f89190810190611a6e565b506060600260405190808252806020026020018201604052801561042b5781602001602082028038833980820191505090505b509050600260009054906101000a900473ffffffffffffffffffffffffffffffffffffffff168160008151811061045e57fe5b602002602001019073ffffffffffffffffffffffffffffffffffffffff16908173ffffffffffffffffffffffffffffffffffffffff1681525050600360009054906101000a900473ffffffffffffffffffffffffffffffffffffffff16816001815181106104c857fe5b602002602001019073ffffffffffffffffffffffffffffffffffffffff16908173ffffffffffffffffffffffffffffffffffffffff16815250506060600160009054906101000a900473ffffffffffffffffffffffffffffffffffffffff1673ffffffffffffffffffffffffffffffffffffffff1663d06ca61f47846040518363ffffffff1660e01b815260040161056192919061217d565b60006040518083038186803b15801561057957600080fd5b505afa15801561058d573d6000803e3d6000fd5b505050506040513d6000823e3d601f19601f820116820180604052506105b691908101906119db565b9050600160009054906101000a900473ffffffffffffffffffffffffffffffffffffffff1673ffffffffffffffffffffffffffffffffffffffff16637ff36ab5478360018151811061060457fe5b60200260200101518530426040518663ffffffff1660e01b815260040161062e94939291906121ad565b6000604051808303818588803b15801561064757600080fd5b505af115801561065b573d6000803e3d6000fd5b50505050506040513d6000823e3d601f19601f8201168201806040525061068591908101906119db565b50505050610bac565b600360009054906101000a900473ffffffffffffffffffffffffffffffffffffffff1673ffffffffffffffffffffffffffffffffffffffff1663095ea7b3600160009054906101000a900473ffffffffffffffffffffffffffffffffffffffff16836040518363ffffffff1660e01b815260040161070d929190611fe2565b602060405180830381600087803b15801561072757600080fd5b505af115801561073b573d6000803e3d6000fd5b505050506040513d601f19601f8201168201806040525061075f9190810190611a1c565b50606060026040519080825280602002602001820160405280156107925781602001602082028038833980820191505090505b509050600360009054906101000a900473ffffffffffffffffffffffffffffffffffffffff16816000815181106107c557fe5b602002602001019073ffffffffffffffffffffffffffffffffffffffff16908173ffffffffffffffffffffffffffffffffffffffff1681525050600260009054906101000a900473ffffffffffffffffffffffffffffffffffffffff168160018151811061082f57fe5b602002602001019073ffffffffffffffffffffffffffffffffffffffff16908173ffffffffffffffffffffffffffffffffffffffff16815250506060600160009054906101000a900473ffffffffffffffffffffffffffffffffffffffff1673ffffffffffffffffffffffffffffffffffffffff1663d06ca61f84846040518363ffffffff1660e01b81526004016108c892919061217d565b60006040518083038186803b1580156108e057600080fd5b505afa1580156108f4573d6000803e3d6000fd5b505050506040513d6000823e3d601f19601f8201168201806040525061091d91908101906119db565b9050600160009054906101000a900473ffffffffffffffffffffffffffffffffffffffff1673ffffffffffffffffffffffffffffffffffffffff16637ff36ab5848360018151811061096b57fe5b60200260200101518530426040518663ffffffff1660e01b815260040161099594939291906121ad565b6000604051808303818588803b1580156109ae57600080fd5b505af11580156109c2573d6000803e3d6000fd5b50505050506040513d6000823e3d601f19601f820116820180604052506109ec91908101906119db565b5060008060009054906101000a900473ffffffffffffffffffffffffffffffffffffffff1673ffffffffffffffffffffffffffffffffffffffff1663809a9e5573eeeeeeeeeeeeeeeeeeeeeeeeeeeeeeeeeeeeeeee600360009054906101000a900473ffffffffffffffffffffffffffffffffffffffff16476040518463ffffffff1660e01b8152600401610a8393929190612042565b604080518083038186803b158015610a9a57600080fd5b505afa158015610aae573d6000803e3d6000fd5b505050506040513d601f19601f82011682018060405250610ad29190810190611a97565b5090506000809054906101000a900473ffffffffffffffffffffffffffffffffffffffff1673ffffffffffffffffffffffffffffffffffffffff16633bba21dc600360009054906101000a900473ffffffffffffffffffffffffffffffffffffffff1647846040518463ffffffff1660e01b8152600401610b5593929190612079565b602060405180830381600087803b158015610b6f57600080fd5b505af1158015610b83573d6000803e3d6000fd5b505050506040513d601f19601f82011682018060405250610ba79190810190611a6e565b505050505b8160200151600360009054906101000a900473ffffffffffffffffffffffffffffffffffffffff1673ffffffffffffffffffffffffffffffffffffffff166370a08231306040518263ffffffff1660e01b8152600401610c0c9190611fc7565b60206040518083038186803b158015610c2457600080fd5b505afa158015610c38573d6000803e3d6000fd5b505050506040513d601f19601f82011682018060405250610c5c9190810190611a6e565b1015610c9d576040517f08c379a0000000000000000000000000000000000000000000000000000000008152600401610c94906120b0565b60405180910390fd5b60008260200151600360009054906101000a900473ffffffffffffffffffffffffffffffffffffffff1673ffffffffffffffffffffffffffffffffffffffff166370a08231306040518263ffffffff1660e01b8152600401610cff9190611fc7565b60206040518083038186803b158015610d1757600080fd5b505afa158015610d2b573d6000803e3d6000fd5b505050506040513d601f19601f82011682018060405250610d4f9190810190611a6e565b039050600360009054906101000a900473ffffffffffffffffffffffffffffffffffffffff1673ffffffffffffffffffffffffffffffffffffffff1663a9059cbb600460009054906101000a900473ffffffffffffffffffffffffffffffffffffffff16836040518363ffffffff1660e01b8152600401610dd1929190611fe2565b602060405180830381600087803b158015610deb57600080fd5b505af1158015610dff573d6000803e3d6000fd5b505050506040513d601f19601f82011682018060405250610e239190810190611a1c565b507fe503bf1e9a3decb3bec72a2a580e51bf55d3ab37b637085bdaaf9be459165531838242604051610e579392919061212b565b60405180910390a1505050505050565b60008490506000610e7886866110d0565b90506000610e8585611282565b90508573ffffffffffffffffffffffffffffffffffffffff1663095ea7b388836040518363ffffffff1660e01b8152600401610ec2929190611fe2565b602060405180830381600087803b158015610edc57600080fd5b505af1158015610ef0573d6000803e3d6000fd5b505050506040513d601f19601f82011682018060405250610f149190810190611a1c565b5060606003604051908082528060200260200182016040528015610f5257816020015b610f3f61156e565b815260200190600190039081610f375790505b509050610f5f838761129f565b81600081518110610f6c57fe5b6020026020010181905250610fbe6040518060400160405280876001811115610f9157fe5b815260200184815250604051602001610faa9190612110565b604051602081830303815290604052611358565b81600181518110610fcb57fe5b6020026020010181905250610fe08383611402565b81600281518110610fed57fe5b60200260200101819052506060600160405190808252806020026020018201604052801561103557816020015b6110226115da565b81526020019060019003908161101a5790505b5090506110406114bb565b8160008151811061104d57fe5b60200260200101819052508473ffffffffffffffffffffffffffffffffffffffff1663a67a6a4582846040518363ffffffff1660e01b815260040161109392919061200b565b600060405180830381600087803b1580156110ad57600080fd5b505af11580156110c1573d6000803e3d6000fd5b50505050505050505050505050565b60008083905060008173ffffffffffffffffffffffffffffffffffffffff1663295c39a56040518163ffffffff1660e01b815260040160206040518083038186803b15801561111e57600080fd5b505afa158015611132573d6000803e3d6000fd5b505050506040513d601f19601f820116820180604052506111569190810190611a6e565b9050600080600090505b82811015611240578373ffffffffffffffffffffffffffffffffffffffff1663062bd3e9826040518263ffffffff1660e01b81526004016111a19190612162565b60206040518083038186803b1580156111b957600080fd5b505afa1580156111cd573d6000803e3d6000fd5b505050506040513d601f19601f820116820180604052506111f191908101906118e8565b91508573ffffffffffffffffffffffffffffffffffffffff168273ffffffffffffffffffffffffffffffffffffffff161415611233578094505050505061127c565b8080600101915050611160565b506040517f08c379a0000000000000000000000000000000000000000000000000000000008152600401611273906120f0565b60405180910390fd5b92915050565b60006112986002836114f490919063ffffffff16565b9050919050565b6112a761160a565b604051806101000160405280600160088111156112c057fe5b8152602001600081526020016040518060800160405280600015158152602001600060018111156112ed57fe5b8152602001600060018111156112ff57fe5b8152602001858152508152602001848152602001600081526020013073ffffffffffffffffffffffffffffffffffffffff1681526020016000815260200160405180602001604052806000815250815250905092915050565b61136061160a565b60405180610100016040528060088081111561137857fe5b8152602001600081526020016040518060800160405280600015158152602001600060018111156113a557fe5b8152602001600060018111156113b757fe5b81526020016000815250815260200160008152602001600081526020013073ffffffffffffffffffffffffffffffffffffffff16815260200160008152602001838152509050919050565b61140a61160a565b6040518061010001604052806000600881111561142357fe5b81526020016000815260200160405180608001604052806001151581526020016000600181111561145057fe5b81526020016000600181111561146257fe5b8152602001858152508152602001848152602001600081526020013073ffffffffffffffffffffffffffffffffffffffff1681526020016000815260200160405180602001604052806000815250815250905092915050565b6114c3611676565b60405180604001604052803073ffffffffffffffffffffffffffffffffffffffff1681526020016001815250905090565b60008082840190508381101561153f576040517f08c379a0000000000000000000000000000000000000000000000000000000008152600401611536906120d0565b60405180910390fd5b8091505092915050565b60405180604001604052806000600181111561156157fe5b8152602001600081525090565b6040518061010001604052806000600881111561158757fe5b81526020016000815260200161159b6116a6565b81526020016000815260200160008152602001600073ffffffffffffffffffffffffffffffffffffffff16815260200160008152602001606081525090565b6040518060400160405280600073ffffffffffffffffffffffffffffffffffffffff168152602001600081525090565b6040518061010001604052806000600881111561162357fe5b8152602001600081526020016116376116a6565b81526020016000815260200160008152602001600073ffffffffffffffffffffffffffffffffffffffff16815260200160008152602001606081525090565b6040518060400160405280600073ffffffffffffffffffffffffffffffffffffffff168152602001600081525090565b6040518060800160405280600015158152602001600060018111156116c757fe5b8152602001600060018111156116d957fe5b8152602001600081525090565b6000813590506116f58161250f565b92915050565b60008151905061170a8161250f565b92915050565b600082601f83011261172157600080fd5b815161173461172f82612226565b6121f9565b9150818183526020840193506020810190508385602084028201111561175957600080fd5b60005b83811015611789578161176f88826118d3565b84526020840193506020830192505060018101905061175c565b5050505092915050565b6000815190506117a281612526565b92915050565b600082601f8301126117b957600080fd5b81356117cc6117c78261224e565b6121f9565b915080825260208301602083018583830111156117e857600080fd5b6117f3838284612488565b50505092915050565b60008135905061180b8161253d565b92915050565b6000815190506118208161253d565b92915050565b60006040828403121561183857600080fd5b61184260406121f9565b9050600061185284828501611811565b6000830152506020611866848285016118d3565b60208301525092915050565b60006040828403121561188457600080fd5b61188e60406121f9565b9050600061189e848285016116e6565b60008301525060206118b2848285016118be565b60208301525092915050565b6000813590506118cd8161254d565b92915050565b6000815190506118e28161254d565b92915050565b6000602082840312156118fa57600080fd5b6000611908848285016116fb565b91505092915050565b6000806000806080858703121561192757600080fd5b6000611935878288016116e6565b9450506020611946878288016116e6565b9350506040611957878288016118be565b9250506060611968878288016117fc565b91505092959194509250565b60008060006080848603121561198957600080fd5b6000611997868287016116e6565b93505060206119a886828701611872565b925050606084013567ffffffffffffffff8111156119c557600080fd5b6119d1868287016117a8565b9150509250925092565b6000602082840312156119ed57600080fd5b600082015167ffffffffffffffff811115611a0757600080fd5b611a1384828501611710565b91505092915050565b600060208284031215611a2e57600080fd5b6000611a3c84828501611793565b91505092915050565b600060408284031215611a5757600080fd5b6000611a6584828501611826565b91505092915050565b600060208284031215611a8057600080fd5b6000611a8e848285016118d3565b91505092915050565b60008060408385031215611aaa57600080fd5b6000611ab8858286016118d3565b9250506020611ac9858286016118d3565b9150509250929050565b6000611adf8383611b26565b60208301905092915050565b6000611af78383611e14565b905092915050565b6000611b0b8383611f7a565b60408301905092915050565b611b20816123e6565b82525050565b611b2f81612352565b82525050565b611b3e81612352565b82525050565b6000611b4f826122aa565b611b5981856122fd565b9350611b648361227a565b8060005b83811015611b95578151611b7c8882611ad3565b9750611b87836122d6565b925050600181019050611b68565b5085935050505092915050565b6000611bad826122b5565b611bb7818561230e565b935083602082028501611bc98561228a565b8060005b85811015611c055784840389528151611be68582611aeb565b9450611bf1836122e3565b925060208a01995050600181019050611bcd565b50829750879550505050505092915050565b6000611c22826122c0565b611c2c818561231f565b9350611c378361229a565b8060005b83811015611c68578151611c4f8882611aff565b9750611c5a836122f0565b925050600181019050611c3b565b5085935050505092915050565b611c7e81612364565b82525050565b6000611c8f826122cb565b611c998185612330565b9350611ca9818560208601612497565b611cb2816124ca565b840191505092915050565b611cc6816123f8565b82525050565b611cd58161241c565b82525050565b611ce48161242e565b82525050565b611cf381612440565b82525050565b611d0281612452565b82525050565b6000611d15602483612341565b91507f4e6f7420656e6f7567682066756e647320746f2072657061792044794478206c60008301527f6f616e21000000000000000000000000000000000000000000000000000000006020830152604082019050919050565b6000611d7b601b83612341565b91507f536166654d6174683a206164646974696f6e206f766572666c6f7700000000006000830152602082019050919050565b6000611dbb602483612341565b91507f4e6f206d61726b6574496420666f756e6420666f722070726f7669646564207460008301527f6f6b656e000000000000000000000000000000000000000000000000000000006020830152604082019050919050565b600061016083016000830151611e2d6000860182611ccc565b506020830151611e406020860182611fa9565b506040830151611e536040860182611f25565b506060830151611e6660c0860182611fa9565b506080830151611e7960e0860182611fa9565b5060a0830151611e8d610100860182611b26565b5060c0830151611ea1610120860182611fa9565b5060e0830151848203610140860152611eba8282611c84565b9150508091505092915050565b604082016000820151611edd6000850182611cf9565b506020820151611ef06020850182611fa9565b50505050565b604082016000820151611f0c6000850182611cf9565b506020820151611f1f6020850182611fa9565b50505050565b608082016000820151611f3b6000850182611c75565b506020820151611f4e6020850182611cdb565b506040820151611f616040850182611cea565b506060820151611f746060850182611fa9565b50505050565b604082016000820151611f906000850182611b26565b506020820151611fa36020850182611fa9565b50505050565b611fb2816123dc565b82525050565b611fc1816123dc565b82525050565b6000602082019050611fdc6000830184611b17565b92915050565b6000604082019050611ff76000830185611b35565b6120046020830184611fb8565b9392505050565b600060408201905081810360008301526120258185611c17565b905081810360208301526120398184611ba2565b90509392505050565b60006060820190506120576000830186611cbd565b6120646020830185611cbd565b6120716040830184611fb8565b949350505050565b600060608201905061208e6000830186611cbd565b61209b6020830185611fb8565b6120a86040830184611fb8565b949350505050565b600060208201905081810360008301526120c981611d08565b9050919050565b600060208201905081810360008301526120e981611d6e565b9050919050565b6000602082019050818103600083015261210981611dae565b9050919050565b60006040820190506121256000830184611ef6565b92915050565b60006080820190506121406000830186611ec7565b61214d6040830185611fb8565b61215a6060830184611fb8565b949350505050565b60006020820190506121776000830184611fb8565b92915050565b60006040820190506121926000830185611fb8565b81810360208301526121a48184611b44565b90509392505050565b60006080820190506121c26000830187611fb8565b81810360208301526121d48186611b44565b90506121e36040830185611b17565b6121f06060830184611fb8565b95945050505050565b6000604051905081810181811067ffffffffffffffff8211171561221c57600080fd5b8060405250919050565b600067ffffffffffffffff82111561223d57600080fd5b602082029050602081019050919050565b600067ffffffffffffffff82111561226557600080fd5b601f19601f8301169050602081019050919050565b6000819050602082019050919050565b6000819050602082019050919050565b6000819050602082019050919050565b600081519050919050565b600081519050919050565b600081519050919050565b600081519050919050565b6000602082019050919050565b6000602082019050919050565b6000602082019050919050565b600082825260208201905092915050565b600082825260208201905092915050565b600082825260208201905092915050565b600082825260208201905092915050565b600082825260208201905092915050565b600061235d826123bc565b9050919050565b60008115159050919050565b600081905061237e826124db565b919050565b6000819050612391826124e8565b919050565b60008190506123a4826124f5565b919050565b60008190506123b782612502565b919050565b600073ffffffffffffffffffffffffffffffffffffffff82169050919050565b6000819050919050565b60006123f182612464565b9050919050565b60006124038261240a565b9050919050565b6000612415826123bc565b9050919050565b600061242782612370565b9050919050565b600061243982612383565b9050919050565b600061244b82612396565b9050919050565b600061245d826123a9565b9050919050565b600061246f82612476565b9050919050565b6000612481826123bc565b9050919050565b82818337600083830152505050565b60005b838110156124b557808201518184015260208101905061249a565b838111156124c4576000848401525b50505050565b6000601f19601f8301169050919050565b600981106124e557fe5b50565b600281106124f257fe5b50565b600281106124ff57fe5b50565b6002811061250c57fe5b50565b61251881612352565b811461252357600080fd5b50565b61252f81612364565b811461253a57600080fd5b50565b6002811061254a57600080fd5b50565b612556816123dc565b811461256157600080fd5b5056fea365627a7a72315820989427646422282ac6a4ddf03a2da61aa9099b19a8c85c13ac4b269ea243d5fb6c6578706572696d656e74616cf564736f6c63430005110040",
  "source": "//SPDX-License-Identifier: GPL-3.0\npragma solidity ^0.5.7;\n\npragma experimental ABIEncoderV2;\n\nimport \"@studydefi/money-legos/dydx/contracts/DydxFlashloanBase.sol\";\nimport \"@studydefi/money-legos/dydx/contracts/ICallee.sol\";\nimport { KyberNetworkProxy as IKyberNetworkProxy } from '@studydefi/money-legos/kyber/contracts/KyberNetworkProxy.sol';\n\nimport \"@openzeppelin/contracts/token/ERC20/IERC20.sol\";\nimport \"./IUniswapV2Router02.sol\";\nimport \"./IWeth.sol\";\n\n\ncontract Flashloan is ICallee, DydxFlashloanBase \n{\n\n    enum Direction { KyberToUniswap, UniswapToKyber } \n    \n    struct ArbInfo \n    {\n        Direction direction;\n        uint repayAmount;\n    }\n\n    event NewArbitrage(ArbInfo, uint profit, uint date);\n\n    IKyberNetworkProxy kyber;\n    IUniswapV2Router02 uniswap;\n    IWeth weth;\n    IERC20 dai;\n    address beneficiary;\n    address constant KYBER_ETH_ADDRESS = 0xEeeeeEeeeEeEeeEeEeEeeEEEeeeeEeeeeeeeEEeE;\n\n    constructor(address kyberAddress, address uniswapAddress, address wethAddress, address daiAddress, address beneficiaryAddress) public\n    {\n        kyber = IKyberNetworkProxy(kyberAddress);\n        uniswap = IUniswapV2Router02(uniswapAddress);\n        weth = IWeth(wethAddress);\n        dai = IERC20(daiAddress);\n        beneficiary = beneficiaryAddress;\n    }\n\n    // This is the function that will be called postLoan\n    // i.e. Encode the logic to handle your flashloaned funds here\n    function callFunction(address sender, Account.Info memory account, bytes memory data) public\n    {\n        ArbInfo memory arbInfo = abi.decode(data, (ArbInfo));\n        uint256 balanceDai = dai.balanceOf(address(this));\n\n        if(arbInfo.direction == Direction.KyberToUniswap)\n        {\n            //Buy ETH on Kyber\n            dai.approve(address(kyber), balanceDai); \n            (uint expectedRate, ) = kyber.getExpectedRate(dai, IERC20(KYBER_ETH_ADDRESS), balanceDai);\n            kyber.swapTokenToEther(dai, balanceDai, expectedRate);\n            //Sell ETH on Uniswap\n            address[] memory path = new address[](2);\n            path[0] = address(weth);\n            path[1] = address(dai);\n            uint[] memory minOuts = uniswap.getAmountsOut(address(this).balance, path);\n            uniswap.swapExactETHForTokens.value(address(this).balance)(minOuts[1], path, address(this), now);\n        }\n        else\n        {\n            //Buy ETH on Uniswap\n            dai.approve(address(uniswap), balanceDai);\n            address[] memory path = new address[](2);\n            path[0] = address(dai);\n            path[1] = address(weth);\n            uint[] memory minOuts = uniswap.getAmountsOut(balanceDai, path);\n            uniswap.swapExactETHForTokens.value(balanceDai)(minOuts[1], path, address(this), now);\n            //Sell ETH on Kyber\n            (uint expectedRate, ) = kyber.getExpectedRate(IERC20(KYBER_ETH_ADDRESS), dai, address(this).balance);\n            kyber.swapTokenToEther(dai, address(this).balance, expectedRate);\n        }\n\n        require(dai.balanceOf(address(this)) >= arbInfo.repayAmount, \"Not enough funds to repay DyDx loan!\");\n\n        uint profit = dai.balanceOf(address(this)) - arbInfo.repayAmount;\n        dai.transfer(beneficiary, profit);\n        emit NewArbitrage(arbInfo, profit, block.timestamp);\n    }\n\n    function initiateFlashloan(address _solo, address _token, uint256 _amount, Direction _direction) external \n    {\n        ISoloMargin solo = ISoloMargin(_solo);\n\n        // Get marketId from token address\n        uint256 marketId = _getMarketIdFromTokenAddress(_solo, _token);\n\n        // Calculate repay amount (_amount + (2 wei))\n        // Approve transfer from\n        uint256 repayAmount = _getRepaymentAmountInternal(_amount);\n        IERC20(_token).approve(_solo, repayAmount);\n\n        // 1. Withdraw $\n        // 2. Call callFunction(...)\n        // 3. Deposit back $\n        Actions.ActionArgs[] memory operations = new Actions.ActionArgs[](3);\n\n        operations[0] = _getWithdrawAction(marketId, _amount);\n        operations[1] = _getCallAction(\n            // Encode ArbInfo for callFunction\n            abi.encode(ArbInfo({direction: _direction, repayAmount: repayAmount}))\n        );\n        operations[2] = _getDepositAction(marketId, repayAmount);\n\n        Account.Info[] memory accountInfos = new Account.Info[](1);\n        accountInfos[0] = _getAccountInfo();\n\n        solo.operate(accountInfos, operations);\n    }\n\n    function() external payable {}\n}",
  "sourcePath": "C:\\Users\\Rufat.Aliyev\\Desktop\\Rufat\\SelfStudy\\Blockchain\\Projects\\Flashloan\\contracts\\Flashloan.sol",
  "compiler": {
    "name": "solc",
    "version": "0.5.17+commit.d19bba13.Emscripten.clang"
  },
  "schemaVersion": "3.4.11",
  "updatedAt": "2023-02-21T19:19:55.335Z",
  "devdoc": {
    "methods": {}
  },
  "userdoc": {
    "methods": {}
  }
}